:0400000007EF00F016
:100008003C820AED02F0CCEF06F0520E2418D8A478
:1000180003D0E9EC04F012002450D00F356E3550AF
:10002800050D600EF324D96E000EF420DA6E25500B
:10003800D00FDF6E3550050D010EF326000EF422A9
:10004800600EF324D96E000EF420DA6E2650D00F1D
:10005800DF6E3550050D040EF326000EF422600EF7
:10006800F324D96E000EF420DA6E3550050D010E1A
:10007800F326000EF422600EF324E16E000EF42045
:10008800E26EE750106E3550050D600EF324E16EF8
:10009800000EF420E26EE7500A0DF3501024DF6ED4
:1000A80036503524096E0A6A0A363550050D040E95
:1000B800F326000EF422600EF324D96E000EF4200D
:1000C800DA6EDF500B6E1FEC07F03550050D040E8D
:1000D800F326000EF422600EF324D96E000EF420ED
:1000E800DA6EDF503A24316E170E316403D0315086
:1000F800E80F316E2D503524096E0A6A0A3631C070
:1001080001F0026A000E046E0A0E036EC1EC05F0DF
:1001180001500B6E1FEC07F039503524096E0A6A3E
:100128000A3631C001F0026A000E046E0A0E036E30
:100138003CEC06F001500B6E1FEC07F03550050D36
:10014800600EF324D96E000EF420DA6E31C001F08F
:10015800026A000E046E0A0E036EC1EC05F001502F
:10016800DF6E3550050D010EF326000EF422600EE9
:10017800F324D96E000EF420DA6E31C001F0026A61
:10018800000E046E0A0E036E3CEC06F00150DF6EA2
:1001980038503524096E0A6A0A363BC001F0026AF3
:1001A800000E046E0A0E036EC1EC05F001500B6ED2
:1001B8001FEC07F037503524096E0A6A0A363BC02F
:1001C80001F0026A000E046E0A0E036E3CEC06F0A3
:1001D80001500B6E1FEC07F03550050D020EF3268B
:1001E800000EF422600EF324D96E000EF420DA6EAD
:1001F8003BC001F0026A000E046E0A0E036EC1ECE9
:1002080005F00150DF6E3550050D030EF326000E84
:10021800F422600EF324D96E000EF420DA6E3BC08F
:1002280001F0026A000E046E0A0E036E3CEC06F042
:100238000150DF6E3550010D290EF324D96E000EE2
:10024800F420DA6E010EDF6E010E336E120000012B
:10025800846F00018451050D600EF324D96E000EE1
:10026800F420DA6E8451050D040EF326000EF422F4
:10027800600EF324E16E000EF420E26EE750806F0A
:100288008051746F756B000E776F0A0E766F7EEC77
:1002980005F074C081F075C082F03AC074F00001B6
:1002A800756B000E776F0A0E766F7EEC05F0000115
:1002B80074518125DF6E8451050D010EF326000E61
:1002C800F422600EF324D96E000EF420DA6E845105
:1002D800050D040EF326000EF422600EF324E16EE1
:1002E800000EF420E26EE750806F8051746F756BDA
:1002F800000E776F0A0E766F03EC06F074C081F07B
:1003080075C082F03AC074F00001756B000E776F0B
:100318000A0E766F03EC06F0000174518125DF6E3A
:100328008451050D010EF326000EF422600EF3240D
:10033800D96E000EF420DA6EDF50806F8451050DFF
:10034800600EF324D96E000EF420DA6EDF500A0D29
:10035800F3508025836F170E836503D08351E80F10
:10036800836F2D5084257C6F7D6B7D3783C074F03F
:10037800756B000E776F0A0E766F7EEC05F0000144
:1003880074517E6F06EC07F03950000184257C6FAC
:100398007D6B7D3783C074F0756B000E776F0A0E26
:1003A800766F03EC06F0000174517E6F06EC07F0DF
:1003B80000018451050D600EF324D96E000EF4205F
:1003C800DA6E83C074F0756B000E776F0A0E766F65
:1003D8007EEC05F000017451DF6E8451050D010EAD
:1003E800F326000EF422600EF324D96E000EF420DA
:1003F800DA6E83C074F0756B000E776F0A0E766F35
:1004080003EC06F000017451DF6E12000600FACF0B
:1004180012F0FBCF13F0E9CF14F0EACF15F0E1CFDB
:1004280016F0E2CF17F0D9CF18F0DACF19F0F3CFE2
:100438001AF0F4CF1BF0F6CF1CF0F7CF1DF0F8CF71
:100448001EF0F5CF1FF03CC020F03DC021F03EC0AB
:1004580022F03FC023F0F2A215D0F2922F50D8A478
:1004680011D03350D8B40AD03450010D290EF324DA
:10047800D96E000EF420DA6E000EDF6E010E2F6EBC
:10048800010E336EF2A42AD0480ED76EE40ED66E53
:10049800F2942E2A81A002D0000E2F6E3C0E2E1848
:1004A800D8A406D049EC07F09CEC04F0000E2E6EA0
:1004B8002E50D8B442EC03F03CEC04F03004D8A43D
:1004C8000DD080A202D0010E01D0000EFF0A116EDD
:1004D800114680501118FD0B1118806E9EAA13D07A
:1004E8009E9A3250010D240EF324D96E000EF4208A
:1004F800DA6EAECFDFFF322A040E326404D0000E6B
:10050800326E09EC00F023C03FF022C03EF021C05B
:100518003DF020C03CF01FC0F5FF1EC0F8FF1DC015
:10052800F7FF1CC0F6FF1BC0F4FF1AC0F3FF19C089
:10053800DAFF18C0D9FF17C0E2FF16C0E1FF15C0E7
:10054800EAFF14C0E9FF13C0FBFF12C0FAFF3C9298
:1005580011000001766F00017651D8A419D0838E5E
:10056800080E0001746FC90EE82EFED7742FFCD751
:1005780000D0839E020E0001756F300E746FE20E7C
:10058800E82EFED7742FFCD7752FFAD700F012008B
:1005980000017605D8A418D0838E0F0E0001746F61
:1005A800050EE82EFED7742FFCD7839E020E00019D
:1005B800756F2A0E746FA60EE82EFED7742FFCD71F
:1005C800752FFAD700F01200020E00017619D8A490
:1005D80019D0838E160E0001746FD00EE82EFED748
:1005E800742FFCD700F0839E020E0001756F220E57
:1005F800746FDB0EE82EFED7742FFCD7752FFAD751
:1006080000D01200030E00017619D8A419D0838EE9
:10061800200E0001746F290EE82EFED7742FFCD728
:1006280000D0839E020E0001756F190E746F810E43
:10063800E82EFED7742FFCD7752FFAD700D01200FA
:10064800040E00017619D8A41200838E260E00012C
:10065800746F650EE82EFED7742FFCD700D0839EEA
:10066800020E0001756F130E746F450EE82EFED74B
:10067800742FFCD7752FFAD700D01200000E0B6E1E
:10068800030E0B6401D012003AC001F0026A000E9A
:10069800046E0A0E036EC1EC05F00B50050D600EDA
:1006A800F324D96E000EF420DA6EDF50096E0A6A60
:1006B800015009186DE102500A18D8A469D03AC04F
:1006C80001F0026A000E046E0A0E036E3CEC06F09E
:1006D8000B50050D010EF326000EF422600EF324D4
:1006E800D96E000EF420DA6EDF50096E0A6A0150E6
:1006F80009184EE102500A18D8A44AD03BC001F0AC
:10070800026A000E046E0A0E036EC1EC05F00B506F
:10071800050D020EF326000EF422600EF324D96EA6
:10072800000EF420DA6EDF50096E0A6A01500918CB
:100738002FE102500A18D8A42BD03BC001F0026A5E
:10074800000E046E0A0E036E3CEC06F00B50050D0D
:10075800030EF326000EF422600EF324D96E000E69
:10076800F420DA6EDF50096E0A6A0150091810E1A8
:1007780002500A18D8A40CD00B50010D290EF324EE
:10078800D96E000EF420DA6E010EDF6E010E306EA7
:100798000B2A76D7000E0001766F030E766501D01E
:1007A80012007651050D600EF324D96E000EF42068
:1007B800DA6E2D507625746F756B753766EC07F019
:1007C800DF6E00017651050D010EF326000EF422AE
:1007D800600EF324D96E000EF420DA6E39507625B7
:1007E800746F756B753766EC07F0DF6E0001765134
:1007F800050D020EF326000EF422600EF324D96EC6
:10080800000EF420DA6E38507625746F756B7537E4
:1008180066EC07F0DF6E00017651050D030EF32636
:10082800000EF422600EF324D96E000EF420DA6E66
:1008380037507625746F756B753766EC07F0DF6E89
:1008480000017651050D040EF326000EF422600E09
:10085800F324D96E000EF420DA6E36507625746FC4
:10086800756B753766EC07F0DF6E0001762B95D750
:1008780034EC05F02D0E74EC07F0200E74EC07F044
:100888003AC001F0026A000E046E0A0E036EC1EC53
:1008980005F00150300F74EC07F03AC001F0026A1D
:1008A800000E046E0A0E036E3CEC06F00150300F89
:1008B80074EC07F03A0E74EC07F03BC001F0026AE2
:1008C800000E046E0A0E036EC1EC05F00150300FE5
:1008D80074EC07F03BC001F0026A000E046E0A0EC9
:1008E800036E3CEC06F00150300F74EC07F03A0E42
:1008F80074EC07F02EC001F0026A000E046E0A0EB6
:10090800036EC1EC05F00150300F74EC07F02EC0F7
:1009180001F0026A000E046E0A0E036E3CEC06F04B
:100928000150300F74EC07F00A0E74EC07F0120057
:10093800140E2D24096E0A6A000E0A223AC001F02C
:10094800026A000E046E0A0E036EC1EC05F0015037
:100958000B6E1FEC07F0150E2D24096E0A6A000EA7
:100968000A223AC001F0026A000E046E0A0E036EF3
:100978003CEC06F001500B6E1FEC07F0160E2D2410
:10098800096E0A6A000E0A223BC001F0026A000ED4
:10099800046E0A0E036EC1EC05F001500B6E1FECDD
:1009A80007F0170E2D24096E0A6A000E0A223BC0B2
:1009B80001F0026A000E046E0A0E036E3CEC06F0AB
:1009C80001500B6E1FEC07F01200010E0F6E040EA3
:1009D8000F6401D01CD00F502DC00DF00E6A0D26EB
:1009E800000E0E22130E0D24096E000E0E200A6E44
:1009F8000F50010D240EF324D96E000EF420DA6E88
:100A0800DF50D00F0B6E1FEC07F00F2AE0D7140E43
:100A18002D24016E026A000E02226DEC07F00A0D09
:100A2800F3CF3AF0150E2D24016E026A000E022251
:100A38006DEC07F03A26160E2D24016E026A000EA0
:100A480002226DEC07F00A0DF3CF3BF0170E2D24B0
:100A5800016E026A000E02226DEC07F03B261200BE
:100A6800000E026E030E026401D012000250050D42
:100A7800600EF324D96E000EF420DA6EDF50300FCA
:100A880074EC07F00250050D010EF326000EF42257
:100A9800600EF324D96E000EF420DA6EDF50300FAA
:100AA80074EC07F03A0E74EC07F00250050D020ED4
:100AB800F326000EF422600EF324D96E000EF42003
:100AC800DA6EDF50300F74EC07F00250050D030E9C
:100AD800F326000EF422600EF324D96E000EF420E3
:100AE800DA6EDF50300F74EC07F0090E74EC07F083
:100AF800022AB8D7000E0001796F77AF06D0766D5D
:100B0800771FD8B0772B010E796F75AF06D0746D4B
:100B1800751FD8B0752B010E791B000E7B6F000E68
:100B28007A6F76517711D8B41CD0010E786F04D043
:100B3800D89076377737782B77AFFAD7D8907A3737
:100B48007B377651745D77517559D8A005D07651A9
:100B5800745F7751755B7A81D89077337633782FC5
:100B6800EDD77951D8B404D07A6D7B1FD8B07B2BE0
:100B78007AC074F07BC075F01200000E066E04AEE9
:100B880006D0036C041ED8B0042A010E066E02AE0D
:100B980006D0016C021ED8B0022A010E061A000EF9
:100BA800086E000E076E03500410D8B41CD0010E56
:100BB800056E04D0D89003360436052A04AEFAD759
:100BC800D890073608360350015C04500258D8A064
:100BD80005D00350015E0450025A0780D8900432B1
:100BE8000332052EEDD70650D8B404D0076C081E82
:100BF800D8B0082A07C001F008C002F01200000EA1
:100C08000001796F75AF06D0746D751FD8B0752B5C
:100C1800010E796F77AF04D0766D771FD8B0772B38
:100C280076517711D8B418D0010E786F04D0D890C7
:100C380076377737782B77AFFAD77651745D775157
:100C48007559D8A004D07651745F7751755BD890E8
:100C580077337633782FF1D77951D8B404D0746DBF
:100C6800751FD8B0752B74C074F075C075F012007C
:100C7800000E066E02AE06D0016C021ED8B0022A23
:100C8800010E066E04AE04D0036C041ED8B0042A0C
:100C980003500410D8B418D0010E056E04D0D890B3
:100CA80003360436052A04AEFAD70350015C045013
:100CB8000258D8A004D00350015E0450025AD890BC
:100CC80004320332052EF1D70650D8B404D0016C93
:100CD800021ED8B0022A01C001F002C002F01200C0
:100CE800140E2D240001746F756B000E752366ECCD
:100CF80007F00A0DF3CF3AF0150E2D240001746F9A
:100D0800756B000E752366EC07F03A26160E2D2437
:100D18000001746F756B000E752366EC07F00A0D01
:100D2800F3CF3BF0170E2D240001746F756B000E86
:100D3800752366EC07F03B261200000E346E030E96
:100D4800346401D01FD03450010D290EF324D96E1C
:100D5800000EF420DA6EDE04D8A412D034502BEC46
:100D680001F003D03428ADEC02F03450010D290E07
:100D7800F324D96E000EF420DA6EDE04D8B4F2D76C
:100D8800342ADDD7000E336E000E306E80921200CA
:100D9800F40EF66E0E0EF76E000EF86E00EE36F0DC
:100DA80010EE04F00900F5CFEEFFE550E150FAE14E
:100DB80000EE60F0140EEE6AE806FDE100EE24F0A5
:100DC800120EEE6AE806FDE13C903C92000138EF15
:100DD80007F0928092929294959E170ED56E480EC7
:100DE800D76EE40ED66ED58E200EF26EF294010EFA
:100DF800936EF19E8A80F288F19C000E806E0F0E31
:100E0800C16E12007CC0A9FF7EC0A8FFA69EA69C4A
:100E1800A684F29E550EA76EAA0EA76EA682F28E23
:100E2800A198A68C9C0E00017F6FD70EE82EFED7E6
:100E38007F2FFCD7120009C0A9FF0BC0A8FFA69EF0
:100E4800A69CA684F29E550EA76EAA0EA76EA68231
:100E5800F28EA198A68C9C0E0C6ED70EE82EFED7AB
:100E68000C2EFCD700F01200EDEC06F058EC07F061
:100E780074EC06F0CEEC03F0000EADEC02F0330497
:100E8800D8A4FAD7A1EC06F0F7D73B2A3C0E3B18BA
:100E9800D8A412003A2A000E3B6E180E3A18D8A4AD
:100EA8001200000E3A6E1200949C948E200EAC6EC6
:100EB800900EAB6E4D0EAF6E9D8AD09EF28EF28C68
:100EC8009E9A120074C0A9FFA694A69EA680A85058
:100ED800120001C0A9FFA694A69EA680A8501200E1
:100EE800016E9EA8FED701C0ADFF1200180E0904BE
:020000040020DA
:08000000FFFFFFFFFFFFFFFF00
:020000040030CA
:0E000000000E1F1EFF8385FF0FC00FE00F4094
:00000001FF
